:100000000C948B000C94AA000C94AA000C94AA00E7
:100010000C94AA000C94AA000C94AA000C94AA00B8
:100020000C94AA000C94AA000C94AA000C94AA00A8
:100030000C94AA000C945E020C94AA000C94AA00E2
:100040000C94AA000C94AA000C94AA000C94AA0088
:100050000C94AA000C94AA000C94AA000C94AA0078
:100060000C94AA000C94AA000C94AA000C94AA0068
:100070000C94AA000C94AA000C94AA000C94AA0058
:100080000C94AA000C94AA000C94AA008503FA030D
:10009000FA03FA03FA03FA03FA03FA03FA03FA0378
:1000A000FA03FA03FA03FA03FA03FA03FA03FA0368
:1000B000FA03FA03FA03FA03FA03FA03FA03FA0358
:1000C000FA03FA03FA03FA03FA03FA03FA03FA0348
:1000D000FA03F303FA03FA03FA03FA03FA03FA033F
:1000E000EC03FA03FA03FA03FA03FA03E6038B03B9
:1000F00092039903A003A703AE03B503BC03C30394
:10010000FA03FA03FA03FA03FA03FA03FA03CA0337
:10011000D103D803DF0311241FBECFEFD0E4DEBF2D
:10012000CDBF11E0A0E0B1E0E4E8FAE000E00BBFF1
:1001300002C007900D92A231B107D9F721E0A2E1E8
:10014000B1E001C01D92A333B207E1F70E940A0497
:100150000C9440050C940000CF93DF9300D01F92C5
:10016000CDB7DEB789837B836A8389818A3031F496
:100170008A819B81BC018DE00E94AC0080EC90E004
:10018000FC018081882F90E080729927892BB1F340
:1001900086EC90E02981FC01208380E090E00F90C4
:1001A0000F900F90DF91CF910895CF93DF9300D000
:1001B0001F92CDB7DEB789836A834B838B818823F7
:1001C00071F08A81282F30E081E090E002C0880F32
:1001D000991F2A95E2F7982F8981892B0EC08A8171
:1001E000282F30E081E090E002C0880F991F2A9507
:1001F000E2F7982F9095898189230F900F900F90A7
:10020000DF91CF910895CF93DF9300D0CDB7DEB7C4
:1002100089836A838A81282F30E081E090E002C0E0
:10022000880F991F2A95E2F7982F898189230F90CB
:100230000F90DF91CF9108950F931F93CF93DF938A
:10024000CDB7DEB708E210E040E064E08FEF0E9437
:10025000D500F8018083000086E290E0FC018081F7
:10026000809560E00E940301882311F081E3D3C0F0
:1002700086E290E0FC018081809561E00E940301AC
:10028000882311F084E3C7C086E290E0FC018081FE
:10029000809562E00E940301882311F087E3BBC0D0
:1002A00086E290E0FC018081809563E00E9403017A
:1002B000882311F08AE2AFC008E210E040E065E078
:1002C0008FEF0E94D500F8018083000086E290E065
:1002D000FC018081809560E00E940301882311F079
:1002E00082E399C086E290E0FC018081809561E024
:1002F0000E940301882311F085E38DC086E290E01F
:10030000FC018081809562E00E940301882311F046
:1003100088E381C086E290E0FC018081809563E003
:100320000E940301882311F080E375C008E210E009
:1003300040E066E08FEF0E94D500F8018083000066
:1003400086E290E0FC018081809560E00E940301DC
:10035000882311F083E35FC086E290E0FC01808196
:10036000809561E00E940301882311F086E353C069
:1003700086E290E0FC018081809562E00E940301AA
:10038000882311F089E347C086E290E0FC01808178
:10039000809563E00E940301882311F083E23BC053
:1003A00008E210E040E067E08FEF0E94D500F8011E
:1003B0008083000086E290E0FC018081809560E00F
:1003C0000E940301882311F081E425C086E290E0B9
:1003D000FC018081809561E00E940301882311F077
:1003E00082E419C086E290E0FC018081809562E0A1
:1003F0000E940301882311F083E40DC086E290E09F
:10040000FC018081809563E00E940301882311F044
:1004100084E401C080E0DF91CF911F910F91089596
:10042000CF93DF93CDB7DEB781E890E02BE0FC01FE
:10043000208388E890E02DE730E0FC0131832083C1
:100440008FE690E022E0FC01208384E890E0FC014C
:100450001182108280910E0190910F01A0911001E4
:10046000B09111018093130190931401A093150191
:10047000B09316018FE590E02FE530E0F90120817F
:100480002068FC0120830000DF91CF910895CF9375
:10049000DF93CDB7DEB781E890E0FC011082000069
:1004A000DF91CF910895CF93DF93CDB7DEB781E091
:1004B000809312010000DF91CF9108951F920F9257
:1004C00000905F000F92112400905B000F922F9319
:1004D0003F934F935F936F937F938F939F93AF93CC
:1004E000BF93EF93FF93CF93DF93CDB7DEB78091A8
:1004F000130190911401A0911501B091160101977B
:10050000A109B1098093130190931401A0931501DF
:10051000B09316018091130190911401A0911501DF
:10052000B0911601892B8A2B8B2B91F40E945302D8
:1005300080910E0190910F01A0911001B0911101D5
:100540008093130190931401A0931501B0931601A9
:100550000000DF91CF91FF91EF91BF91AF919F91FB
:100560008F917F916F915F914F913F912F910F905C
:1005700000925B000F9000925F000F901F90189503
:10058000CF93DF9300D000D0CDB7DEB769837A83F5
:100590008B839C8389819A81AB81BC8180930E017E
:1005A00090930F01A0931001B093110180910E015F
:1005B00090910F01A0911001B0911101809313014E
:1005C00090931401A0931501B093160100000F90B1
:1005D0000F900F900F90DF91CF910895CF93DF93FD
:1005E00000D0CDB7DEB79A83898389819A81813023
:1005F000910551F082309105A9F0892B09F581E030
:1006000090E09A8389831FC080911701882329F085
:1006100082E090E09A83898316C081E090E09A831B
:10062000898311C080911701882329F082E090E02E
:100630009A83898308C081E090E09A83898303C00C
:100640001A821982000089819A818130910531F0E6
:100650008230910549F0892B69F00DC08091180115
:100660008F778093180107C080911801806880936C
:10067000180101C0000085E290E020911801FC0102
:10068000208389819A810F900F90DF91CF910895F7
:10069000CF93DF9300D01F92CDB7DEB79B838A83C1
:1006A0008A819B81009719F0019731F00AC081E09F
:1006B00090E09B838A8308C081E090E09B838A83DB
:1006C00003C01B821A8200008A819B81009709F473
:1006D00098C0019709F096C00E941C018983898106
:1006E000882F90E0092E000CAA0BBB0B40E050E0D5
:1006F00024E430E0841B950B2817390708F47AC0EE
:100700008A5B9F4FFC010C9437058FE180931801A1
:100710001092170175C081E08093180181E08093E9
:1007200017016EC082E08093180181E08093170169
:1007300067C083E08093180181E08093170160C057
:1007400084E08093180181E08093170159C085E00F
:100750008093180181E08093170152C086E0809356
:10076000180181E0809317014BC087E08093180146
:1007700081E08093170144C088E08093180181E0F4
:10078000809317013DC089E08093180181E0809338
:10079000170136C08AE08093180181E08093170129
:1007A0002FC08BE08093180181E08093170128C04F
:1007B0008CE08093180181E08093170121C08DE0C7
:1007C0008093180181E0809317011AC010921801DC
:1007D00081E08093170114C08EE08093180181E0BE
:1007E000809317010DC08FE08093180181E0809302
:1007F000170106C08BE180931801109217010000C9
:1008000001C000008A819B810F900F900F90DF91B3
:10081000CF9108950F931F93CF93DF93CDB7DEB79A
:1008200029970FB6F894DEBF0FBECDBF84E290E0EB
:100830002FEFFC01208385E290E0FC01108287E22B
:1008400090E020EFFC01208388E290E02FE0FC01A3
:10085000208389E191E09F838E8384E291E09987F0
:10086000888782E090E09C838B838FEF8D838D81DE
:100870008093190182E390E0A0E0B0E080931A0138
:1008800090931B01A0931C01B0931D0180911A014C
:1008900090911B01A0911C01B0911D0180931E013C
:1008A00090931F01A0932001B093210188E493E06D
:1008B00090932301809322018D818093240182E310
:1008C00090E0A0E0B0E08093250190932601A093F2
:1008D0002701B09328018091250190912601A091D4
:1008E0002701B09128018093290190932A01A093B8
:1008F0002B01B0932C018EEE92E090932E01809309
:100900002D0162E370E080E090E00E94C0020E944E
:1009100010021A8219829BC089819A81880F991FBF
:100920009E012F5F3F4F820F931F0596FC01808130
:100930009181FC01258136814781508589819A8189
:10094000880F991FBE016F5F7F4F860F971F059617
:10095000FC0180819181FC0181819281A381B4811C
:10096000281739074A075B0709F045C089819A8132
:10097000880F991F9E012F5F3F4F820F931F05968F
:10098000FC010081118189819A81880F991F9E0144
:100990002F5F3F4F820F931F0596FC01808191814D
:1009A000FC012185328589819A81880F991FAE01CA
:1009B0004F5F5F4F840F951F0596FC0180819181E9
:1009C000FC018081082E000C990BF9010995F801B2
:1009D000808389819A81880F991F9E012F5F3F4FE5
:1009E000820F931F0596FC0180819181FC01158285
:1009F00016821782108689819A81880F991F9E011D
:100A00002F5F3F4F820F931F0596FC01208131819C
:100A100089819A81880F991FAE014F5F5F4F840FC4
:100A2000951F0596FC0180819181FC01858196814D
:100A3000A781B085C296A11DB11DF901858396835A
:100A4000A783B08789819A8101969A8389832981B6
:100A50003A818B819C812817390708F45DCF00000B
:100A6000809112018823E1F31092120152CFEE0F10
:100A7000FF1F0024001C0BBE0790F691E02D099487
:040A8000F894FFCF18
:100A84000000000200000000AC00000000000100B3
:020A9400000060
:00000001FF
