:100000000C944D000C946C000C946C000C946C00DF
:100010000C946C000C946C000C946C000C946C00B0
:100020000C946C000C946C000C946C000C946C00A0
:100030000C946C000C9420020C946C000C946C00DA
:100040000C946C000C946C000C946C000C946C0080
:100050000C946C000C946C000C946C000C946C0070
:100060000C946C000C946C000C946C000C946C0060
:100070000C946C000C946C000C946C000C946C0050
:100080000C946C000C946C000C946C0028032D03F1
:10009000420353037F03AB03E20311241FBECFEFE0
:1000A000D0E4DEBFCDBF11E0A0E0B1E0E6E4FBE0CC
:1000B00000E00BBF02C007900D92A831B107D9F73D
:1000C00021E0A8E1B1E001C01D92A734B207E1F739
:1000D0000E9444040C94A1050C940000CF93DF937C
:1000E00000D01F92CDB7DEB789837B836A83898175
:1000F0008A3031F48A819B81BC018DE00E946E00C0
:1001000080EC90E0FC018081882F90E0807299273C
:10011000892BB1F386EC90E02981FC01208380E0FB
:1001200090E00F900F900F90DF91CF910895CF93B3
:10013000DF9300D01F92CDB7DEB789836A834B83EC
:100140008B81882371F08A81282F30E081E090E054
:1001500002C0880F991F2A95E2F7982F8981892B71
:100160000EC08A81282F30E081E090E002C0880F25
:10017000991F2A95E2F7982F9095898189230F90EE
:100180000F900F90DF91CF910895CF93DF9300D020
:10019000CDB7DEB789836A838A81282F30E081E07A
:1001A00090E002C0880F991F2A95E2F7982F898165
:1001B00089230F900F90DF91CF9108950F931F9394
:1001C000CF93DF93CDB7DEB708E210E040E064E004
:1001D0008FEF0E949700F8018083000086E290E094
:1001E000FC018081809560E00E94C500882311F0A9
:1001F00081E3D3C086E290E0FC018081809561E0DC
:100200000E94C500882311F084E3C7C086E290E015
:10021000FC018081809562E00E94C500882311F076
:1002200087E3BBC086E290E0FC018081809563E0BB
:100230000E94C500882311F08AE2AFC008E210E0F6
:1002400040E065E08FEF0E949700F8018083000096
:1002500086E290E0FC018081809560E00E94C5000C
:10026000882311F082E399C086E290E0FC0180814E
:10027000809561E00E94C500882311F085E38DC060
:1002800086E290E0FC018081809562E00E94C500DA
:10029000882311F088E381C086E290E0FC01808130
:1002A000809563E00E94C500882311F080E375C04B
:1002B00008E210E040E066E08FEF0E949700F8014E
:1002C0008083000086E290E0FC018081809560E000
:1002D0000E94C500882311F083E35FC086E290E0AE
:1002E000FC018081809561E00E94C500882311F0A7
:1002F00086E353C086E290E0FC018081809562E055
:100300000E94C500882311F089E347C086E290E08F
:10031000FC018081809563E00E94C500882311F074
:1003200083E23BC008E210E040E067E08FEF0E940C
:100330009700F8018083000086E290E0FC01808154
:10034000809560E00E94C500882311F081E425C0FB
:1003500086E290E0FC018081809561E00E94C5000A
:10036000882311F082E419C086E290E0FC018081CC
:10037000809562E00E94C500882311F083E40DC0DF
:1003800086E290E0FC018081809563E00E94C500D8
:10039000882311F084E401C080E0DF91CF911F91A8
:1003A0000F910895CF93DF93CDB7DEB781E890E04A
:1003B0002BE0FC01208388E890E02DE730E0FC0191
:1003C000318320838FE690E022E0FC01208384E8E3
:1003D00090E0FC011182108280910E0190910F013A
:1003E000A0911001B09111018093190190931A010D
:1003F000A0931B01B0931C018FE590E02FE530E046
:10040000F90120812068FC0120830000DF91CF9159
:100410000895CF93DF93CDB7DEB781E890E0FC017C
:1004200010820000DF91CF910895CF93DF93CDB775
:10043000DEB781E0809318010000DF91CF9108952D
:100440001F920F9200905F000F92112400905B00AA
:100450000F922F933F934F935F936F937F938F935D
:100460009F93AF93BF93EF93FF93CF93DF93CDB75A
:10047000DEB78091190190911A01A0911B01B091F2
:100480001C010197A109B1098093190190931A01E8
:10049000A0931B01B0931C018091190190911A0146
:1004A000A0911B01B0911C01892B8A2B8B2B91F4FD
:1004B0000E94150280910E0190910F01A0911001F0
:1004C000B09111018093190190931A01A0931B011F
:1004D000B0931C010000DF91CF91FF91EF91BF918C
:1004E000AF919F918F917F916F915F914F913F91CC
:1004F0002F910F9000925B000F9000925F000F9081
:100500001F901895CF93DF9300D000D0CDB7DEB702
:1005100069837A838B839C8389819A81AB81BC8137
:1005200080930E0190930F01A0931001B0931101DD
:1005300080910E0190910F01A0911001B0911101D5
:100540008093190190931A01A0931B01B0931C0191
:1005500000000F900F900F900F90DF91CF910895B2
:10056000CF93DF9300D01F92CDB7DEB79B838A83F2
:1005700083E290E0FC0180818095807889838A8184
:100580009B818130910551F082309105A1F0892B3A
:10059000F9F481E090E09B838A831DC089818823E0
:1005A00029F481E090E09B838A8315C082E090E08B
:1005B0009B838A8310C08981882329F481E090E09D
:1005C0009B838A8308C082E090E09B838A8303C078
:1005D0001B821A8200008A819B818130910531F053
:1005E0008230910531F0892B51F00AC010921E0122
:1005F00007C010921D0181E080931E0101C0000020
:100600008A819B810F900F900F90DF91CF91089579
:10061000CF93DF9300D01F92CDB7DEB79B838A8341
:100620000E94DE0089838A819B81092E000CAA0B1F
:10063000BB0B40E050E026E030E0841B950B281710
:10064000390708F4C4C08A5B9F4FFC010C949805DD
:1006500081E090E09B838A83BDC08981833269F405
:1006600080911E01882349F480911D01882329F47B
:1006700082E090E09B838A83ADC081E090E09B8321
:100680008A83A8C08981833249F480911E0188231E
:1006900029F482E090E09B838A839CC083E090E011
:1006A0009B838A8397C080911F019981981749F491
:1006B00080911E01882329F484E090E09B838A8343
:1006C0001DC08981882349F480911E01882329F463
:1006D00083E090E09B838A8311C08981833249F44F
:1006E00080911E01882329F482E090E09B838A8315
:1006F00005C081E090E09B838A836CC06BC08091D1
:100700001F019981981749F480911E01882329F4CB
:1007100084E090E09B838A831DC08981882349F40B
:1007200080911E01882329F485E090E09B838A83D1
:1007300011C08981833249F480911E01882329F4F4
:1007400082E090E09B838A8305C081E090E09B83F8
:100750008A8340C03FC08981882391F480911F0122
:10076000853371F080911E01882351F483E090E07D
:100770009B838A8380911F018F5F80931F0121C01B
:100780008981882369F480911F01853349F4809120
:100790001E01882329F486E090E09B838A8311C0A0
:1007A0008981833249F480911E01882329F482E0F3
:1007B00090E09B838A8305C081E090E09B838A83DD
:1007C00009C008C081E090E09B838A8303C01B823C
:1007D0001A8200008A819B818230910591F08330DA
:1007E00091052CF40097A9F0019739F013C08630D9
:1007F00091057CF0069749F00DC080E380931F01BE
:1008000009C081E380931F0105C081E080931D0131
:1008100001C000008A819B810F900F900F90DF91A3
:10082000CF910895CF93DF9300D0CDB7DEB79A83F1
:10083000898389819A81009719F0019731F00AC064
:1008400081E090E09A83898308C081E090E09A83F8
:10085000898303C01A821982000089819A810097D6
:1008600019F0019719F003C0000001C0000085E2F3
:1008700090E020911D01FC01208389819A810F90D5
:100880000F90DF91CF9108950F931F93CF93DF9334
:10089000CDB7DEB72B970FB6F894DEBF0FBECDBF36
:1008A00084E290E02FE7FC01208385E290E020E8DD
:1008B000FC01208387E290E020EFFC01208388E2A6
:1008C00090E02FE0FC01208386E0E2E1F1E0DE0130
:1008D000169601900D928A95E1F783E090E09C8353
:1008E0008B838FEF8D838D818093200182E390E055
:1008F000A0E0B0E08093210190932201A093230116
:10090000B09324018091210190912201A0912301B3
:10091000B09124018093250190932601A093270193
:10092000B093280180EB92E090932A0180932901F3
:100930008D8180932B0182E390E0A0E0B0E0809372
:100940002C0190932D01A0932E01B0932F01809143
:100950002C0190912D01A0912E01B0912F01809337
:10096000300190933101A0933201B093330188E0BC
:1009700093E090933501809334018D81809336010B
:1009800082E390E0A0E0B0E08093370190933801DB
:10099000A0933901B0933A018091370190913801C9
:1009A000A0913901B0913A0180933B0190933C01B1
:1009B000A0933D01B0933E0182E194E09093400109
:1009C00080933F0162E370E080E090E00E94820249
:1009D0000E94D2011A8219829BC089819A81880F54
:1009E000991F9E012F5F3F4F820F931F0596FC01B9
:1009F00080819181FC0125813681478150858981E3
:100A00009A81880F991FBE016F5F7F4F860F971FD6
:100A10000596FC0180819181FC0181819281A381F5
:100A2000B481281739074A075B0709F045C0898157
:100A30009A81880F991F9E012F5F3F4F820F931F4E
:100A40000596FC010081118189819A81880F991F87
:100A50009E012F5F3F4F820F931F0596FC018081FF
:100A60009181FC012185328589819A81880F991FA6
:100A7000AE014F5F5F4F840F951F0596FC0180818B
:100A80009181FC018081082E000C990BF9010995D8
:100A9000F801808389819A81880F991F9E012F5FB9
:100AA0003F4F820F931F0596FC0180819181FC01CD
:100AB000158216821782108689819A81880F991F64
:100AC0009E012F5F3F4F820F931F0596FC012081EF
:100AD000318189819A81880F991FAE014F5F5F4FE5
:100AE000840F951F0596FC0180819181FC01858111
:100AF0009681A781B085C296A11DB11DF90185839C
:100B00009683A783B08789819A8101969A83898386
:100B100029813A818B819C812817390708F45DCFA0
:100B20000000809118018823E1F31092180152CF40
:100B3000EE0FFF1F0024001C0BBE0790F691E02D66
:060B40000994F894FFCFB8
:100B460000000002000000006E000000000001002E
:080B5600000020012B01360113
:00000001FF
