:100000000C9456000C9475000C9475000C947500BB
:100010000C9475000C9475000C9475000C9475008C
:100020000C9475000C9475000C9475000C9475007C
:100030000C9475000C94F0020C9475000C947500EF
:100040000C9475000C9475000C9475000C9475005C
:100050000C9475000C9475000C9475000C9475004C
:100060000C9475000C9475000C9475000C9475003C
:100070000C9475000C9475000C9475000C9475002C
:100080000C9475000C9475000C9475000104060422
:100090001B042C0457048204C904F405F9050A065C
:1000A0001D062A064F066D067C06A10611241FBEFA
:1000B000CFEFD0E4DEBFCDBF11E0A0E0B1E0E4E6D9
:1000C000F4E100E00BBF02C007900D92A235B1072A
:1000D000D9F721E0A2E5B1E001C01D92AC3AB20728
:1000E000E1F70E94EA060C94300A0C940000CF93CA
:1000F000DF9300D01F92CDB7DEB789837B836A83FD
:1001000089818A3031F48A819B81BC018DE00E9413
:10011000770080EC90E0FC018081882F90E0807275
:100120009927892BB1F386EC90E02981FC0120838B
:1001300080E090E00F900F900F90DF91CF910895A5
:10014000CF93DF9300D01F92CDB7DEB789836A8348
:100150004B838B81882371F08A81282F30E081E0E6
:1001600090E002C0880F991F2A95E2F7982F8981A5
:10017000892B0EC08A81282F30E081E090E002C0F8
:10018000880F991F2A95E2F7982F909589818923E6
:100190000F900F900F90DF91CF910895CF93DF9341
:1001A00000D0CDB7DEB789836A838A81282F30E0FB
:1001B00081E090E002C0880F991F2A95E2F7982FFE
:1001C000898189230F900F90DF91CF9108950F932C
:1001D0001F93CF93DF93CDB7DEB708E210E040E086
:1001E00064E08FEF0E94A000F8018083000086E2A7
:1001F00090E0FC018081809560E00E94CE00882321
:1002000011F081E3D3C086E290E0FC01808180950B
:1002100061E00E94CE00882311F084E3C7C086E22B
:1002200090E0FC018081809562E00E94CE008823EE
:1002300011F087E3BBC086E290E0FC0180818095ED
:1002400063E00E94CE00882311F08AE2AFC008E28A
:1002500010E040E065E08FEF0E94A000F80180838D
:10026000000086E290E0FC018081809560E00E94C1
:10027000CE00882311F082E399C086E290E0FC0171
:100280008081809561E00E94CE00882311F085E393
:100290008DC086E290E0FC018081809562E00E9442
:1002A000CE00882311F088E381C086E290E0FC0153
:1002B0008081809563E00E94CE00882311F080E366
:1002C00075C008E210E040E066E08FEF0E94A000F9
:1002D000F8018083000086E290E0FC018081809537
:1002E00060E00E94CE00882311F083E35FC086E2C5
:1002F00090E0FC018081809561E00E94CE0088231F
:1003000011F086E353C086E290E0FC018081809585
:1003100062E00E94CE00882311F089E347C086E2A4
:1003200090E0FC018081809563E00E94CE008823EC
:1003300011F083E23BC008E210E040E067E08FEF9D
:100340000E94A000F8018083000086E290E0FC019A
:100350008081809560E00E94CE00882311F081E4C6
:1003600025C086E290E0FC018081809561E00E94DA
:10037000CE00882311F082E419C086E290E0FC01EF
:100380008081809562E00E94CE00882311F083E492
:100390000DC086E290E0FC018081809563E00E94C0
:1003A000CE00882311F084E401C080E0DF91CF917A
:1003B0001F910F9108950F931F93CF93DF9300D058
:1003C00000D0CDB7DEB769837A838B839C8380911D
:1003D0005A0190915B01A0915C01B0915D019C017B
:1003E000AD0169817A818B819C810E949C08882360
:1003F00009F477C020E030E0A90169817A818B811E
:100400009C810E949C08882351F481E990E021E9B5
:1004100030E0F90120812870FC01208309C081E9C6
:1004200090E021E930E0F90120812360FC01208384
:1004300028E539E344E75FE369817A818B819C8118
:100440000E949C08882344F488E990E02FEF3FEF56
:10045000FC013183208334C020E034E244EF56E4D1
:1004600069817A818B819C810E94BE09181634F4BF
:1004700088E990E0FC011182108222C008E910E0B6
:1004800020E030E040E053E469817A818B819C81F7
:100490000E94C309DC01CB019C01AD0160E074E264
:1004A00084EF9AE40E94A108DC01CB01BC01CD01DC
:1004B0000E941309DC01CB010197F801918380832D
:1004C00084E990E0FC011182108289819A81AB81DC
:1004D000BC8180935A0190935B01A0935C01B0931F
:1004E0005D0100000F900F900F900F90DF91CF9162
:1004F0001F910F910895CF93DF93CDB7DEB780E9B9
:1005000090E020E4FC01208381E990E02BE0FC01F5
:10051000208360E070E0CB010E94DB010000DF91EE
:10052000CF910895CF93DF93CDB7DEB780E990E008
:10053000FC01108281E990E0FC0110820000DF9153
:10054000CF910895CF93DF93CDB7DEB781E890E0E8
:100550002BE0FC01208388E890E02DE730E0FC01EF
:10056000318320838FE690E022E0FC01208384E841
:1005700090E0FC011182108280910E0190910F0198
:10058000A0911001B09111018093530190935401F7
:10059000A0935501B09356018FE590E02FE530E030
:1005A000F90120812068FC0120830000DF91CF91B8
:1005B0000895CF93DF93CDB7DEB781E890E0FC01DB
:1005C00010820000DF91CF910895CF93DF93CDB7D4
:1005D000DEB781E0809352010000DF91CF91089552
:1005E0001F920F9200905F000F92112400905B0009
:1005F0000F922F933F934F935F936F937F938F93BC
:100600009F93AF93BF93EF93FF93CF93DF93CDB7B8
:10061000DEB78091530190915401A0915501B091A2
:1006200056010197A109B109809353019093540198
:10063000A0935501B09356018091530190915401BC
:10064000A0915501B0915601892B8A2B8B2B91F4E7
:100650000E94E50280910E0190910F01A09110017E
:10066000B09111018093530190935401A0935501CF
:10067000B09356010000DF91CF91FF91EF91BF91B0
:10068000AF919F918F917F916F915F914F913F912A
:100690002F910F9000925B000F9000925F000F90DF
:1006A0001F901895CF93DF9300D000D0CDB7DEB761
:1006B00069837A838B839C8389819A81AB81BC8196
:1006C00080930E0190930F01A0931001B09311013C
:1006D00080910E0190910F01A0911001B091110134
:1006E0008093530190935401A0935501B093560108
:1006F00000000F900F900F900F90DF91CF91089511
:10070000CF93DF9300D01F92CDB7DEB79B838A8350
:1007100083E290E0FC0180818095807889838A81E2
:100720009B818130910551F082309105A1F0892B98
:10073000F9F481E090E09B838A831DC0898188233E
:1007400029F481E090E09B838A8315C082E090E0E9
:100750009B838A8310C08981882329F481E090E0FB
:100760009B838A8308C082E090E09B838A8303C0D6
:100770001B821A8200008A819B818130910531F0B1
:100780008230910531F0892B51F00AC01092580146
:1007900007C01092570181E08093580101C000000A
:1007A0008A819B810F900F900F90DF91CF910895D8
:1007B000CF93DF9300D000D0CDB7DEB79C838B837F
:1007C0000E94E700898380915E01882F90E08D5E12
:1007D0009E4FFC0180818A838B819C81092E000CB5
:1007E000AA0BBB0B40E050E026E030E0841B950BE9
:1007F0002817390708F4D2C08A5B9F4FFC010C947C
:10080000930881E090E09C838B83CEC08981833202
:1008100069F480915801882349F480915701882315
:1008200029F482E090E09C838B83BEC081E090E05D
:100830009C838B83B9C08981833249F480915801AC
:10084000882329F482E090E09C838B83ADC083E011
:1008500090E09C838B83A8C099818A81981749F482
:1008600080915801882329F484E090E09C838B8355
:100870001DC08981882349F480915801882329F477
:1008800083E090E09C838B8311C08981833249F49B
:1008900080915801882329F482E090E09C838B8327
:1008A00005C081E090E09C838B837EC07DC09981F0
:1008B0008A81981749F480915801882329F484E0AB
:1008C00090E09C838B831DC08981882349F48091AB
:1008D0005801882329F485E090E09C838B8311C024
:1008E0008981833249F480915801882329F482E078
:1008F00090E09C838B8305C081E090E09C838B8398
:1009000053C052C089818823D1F480915E01282F81
:1009100030E080911201882F90E001972817390765
:1009200074F480915801882351F483E090E09C8313
:100930008B8380915E018F5F80935E0129C08981E6
:100940008823A9F480915E01282F30E08091120164
:10095000882F90E001972817390749F480915801B2
:10096000882329F486E090E09C838B8311C08981E1
:10097000833249F480915801882329F482E090E081
:100980009C838B8305C081E090E09C838B830CC0AB
:100990000BC081E090E09C838B8306C01C821B828D
:1009A00081E08093590100008B819C818230910508
:1009B00089F0833091052CF4009799F0019739F074
:1009C00011C0863091056CF0069739F00BC010927B
:1009D0005E0108C010925E0105C081E0809357015E
:1009E00001C000008B819C810F900F900F900F90A1
:1009F000DF91CF910895CF93DF93CDB7DEB7E39723
:100A00000FB6F894DEBF0FBECDBF9BAB8AAB80E2C2
:100A100090E0FC01808180958078898380E3E8E123
:100A2000F1E0DE01129601900D928A95E1F78AA914
:100A30009BA98130910551F082309105B1F0892B4D
:100A400071F581E090E09BAB8AAB2CC08981882353
:100A500029F481E090E09BAB8AAB24C082E090E077
:100A60009BAB8AAB10925F011DC080915F018C30FF
:100A700028F482E090E09BAB8AAB14C080915F01C8
:100A80008C3041F48981803829F483E090E09BAB7D
:100A90008AAB08C081E090E09BAB8AAB03C01BAA85
:100AA0001AAA00008AA99BA98130910561F08230C1
:100AB00091051CF4892BD1F13AC08230910549F09F
:100AC000039709F034C060E070E0CB010E94DB01C5
:100AD0002EC080915F01882F90E0880F991F880FAA
:100AE000991F9E012F5F3F4F820F931F0196FC01BC
:100AF00080819181A281B381809360019093610193
:100B0000A0936201B09363018091600190916101B3
:100B1000A0916201B0916301BC01CD010E94DB0193
:100B200080915F018F5F80935F0101C000008AA9FF
:100B30009BA9E3960FB6F894DEBF0FBECDBFDF9141
:100B4000CF910895CF93DF9300D0CDB7DEB79A83CE
:100B5000898389819A81009719F0019731F00AC041
:100B600081E090E09A83898308C081E090E09A83D5
:100B7000898303C01A821982000089819A810097B3
:100B800019F0019719F003C0000001C0000085E2D0
:100B900090E020915701FC01208389819A810F9078
:100BA0000F90DF91CF910895CF93DF9300D000D0C5
:100BB000CDB7DEB79C838B830E94E7008A838B814D
:100BC0009C81092E000CAA0BBB0B40E050E028E0F2
:100BD00030E0841B950B2817390708F4B7C0835BF6
:100BE0009F4FFC010C94930881E090E09C838B83E1
:100BF000B0C080915801882341F08A818A3229F45B
:100C000082E090E09C838B83A4C081E090E09C8391
:100C10008B839FC080915801882351F48A81882357
:100C200039F483E090E09C838B831092640191C03F
:100C300082E090E09C838B838CC08A81882329F496
:100C400083E090E09C838B8384C084E090E09C836D
:100C50008B837FC08A81882371F480916401833003
:100C600050F483E090E09C838B83809164018F5FDC
:100C70008093640113C08A81882359F480916401B0
:100C8000833039F485E090E09C838B83109265017A
:100C900005C084E090E09C838B835BC05AC08A814E
:100CA000882371F4809165018A3050F485E090E0EA
:100CB0009C838B83809165018F5F8093650149C020
:100CC0008A81843429F486E090E09C838B8341C040
:100CD00081E090E09C838B833CC08A81843429F43A
:100CE00086E090E09C838B8334C088E090E09C8316
:100CF0008B83109266012DC08A81882371F48091C4
:100D000066018A3050F487E090E09C838B83809169
:100D100066018F5F8093660113C09091A2018A8162
:100D2000981749F4809166018A3028F488E090E0B1
:100D30009C838B8305C081E090E09C838B8309C0FA
:100D400008C081E090E09C838B8303C01C821B82DF
:100D500000008B819C818430910561F08530910584
:100D60001CF499235CF12CC0883091054CF1089754
:100D700059F024C080916401882F90E08E559E4FD9
:100D80002A81FC0120831DC0198211C08981882F0E
:100D900090E02981222F30E02E553E4FF90120812D
:100DA0008D5E9E4FFC01208389818F5F89838981BD
:100DB000843060F384E08093120103C0000001C01E
:100DC00000008B819C810F900F900F900F90DF910E
:100DD000CF9108950F931F93CF93DF93CDB7DEB7D5
:100DE0002F970FB6F894DEBF0FBECDBF81E290E023
:100DF000FC01108282E290E02FEFFC01208384E26C
:100E000090E02FE7FC01208385E290E020E8FC01E0
:100E1000208387E290E020EFFC01208388E290E0CD
:100E20002FE0FC0120838AE0E8E4F1E0DE01169681
:100E300001900D928A95E1F785E090E09C838B8389
:100E40008FEF8D838D818093670182E390E0A0E036
:100E5000B0E08093680190936901A0936A01B09318
:100E60006B018091680190916901A0916A01B09134
:100E70006B0180936C0190936D01A0936E01B09310
:100E80006F0180E893E090937101809370018D81F0
:100E90008093720182E390E0A0E0B0E08093730160
:100EA00090937401A0937501B093760180917301C2
:100EB00090917401A0917501B091760180937701B2
:100EC00090937801A0937901B0937A0188ED93E033
:100ED00090937C0180937B018D8180937D0182E3DF
:100EE00090E0A0E0B0E080937E0190937F01A0931A
:100EF0008001B093810180917E0190917F01A0914A
:100F00008001B09181018093820190938301A0932D
:100F10008401B093850182EA95E0909387018093E4
:100F200086018D818093880188EC90E0A0E0B0E09C
:100F30008093890190938A01A0938B01B0938C01D7
:100F40008091890190918A01A0918B01B0918C01CF
:100F500080938D0190938E01A0938F01B0939001A7
:100F60008BEF94E090939201809391018D81809317
:100F7000930188EC90E0A0E0B0E08093940190931E
:100F80009501A0939601B09397018091940190915F
:100F90009501A0919601B09197018093980190934B
:100FA0009901A0939A01B0939B0184ED95E09093F1
:100FB0009D0180939C0162E370E080E090E00E94DC
:100FC00052030E94A2020E947B021A8219829BC0D5
:100FD00089819A81880F991F9E012F5F3F4F820F51
:100FE000931F0596FC0180819181FC01258136814A
:100FF0004781508589819A81880F991FBE016F5F53
:101000007F4F860F971F0596FC0180819181FC011F
:1010100081819281A381B481281739074A075B0730
:1010200009F045C089819A81880F991F9E012F5F21
:101030003F4F820F931F0596FC010081118189812A
:101040009A81880F991F9E012F5F3F4F820F931F38
:101050000596FC0180819181FC0121853285898181
:101060009A81880F991FAE014F5F5F4F840F951FC4
:101070000596FC0180819181FC018081082E000C85
:10108000990BF9010995F801808389819A81880F6C
:10109000991F9E012F5F3F4F820F931F0596FC0102
:1010A00080819181FC0115821682178210868981C8
:1010B0009A81880F991F9E012F5F3F4F820F931FC8
:1010C0000596FC012081318189819A81880F991FC1
:1010D000AE014F5F5F4F840F951F0596FC01808125
:1010E0009181FC0185819681A781B085C296A11D61
:1010F000B11DF90185839683A783B08789819A8181
:1011000001969A83898329813A818B819C81281752
:10111000390708F45DCF0000809152018823E1F384
:101120001092520152CFEE0FFF1F0024001C0BBE85
:101130000790F691E02D09940E94490908F481E096
:1011400008950E94B5080C9484090E947D0958F006
:101150000E94760940F029F45F3F29F00C946D0954
:1011600051110C94B8090C9473090E94950968F305
:101170009923B1F3552391F3951B550BBB27AA2750
:1011800062177307840738F09F5F5F4F220F331F8A
:10119000441FAA1FA9F335D00E2E3AF0E0E832D052
:1011A00091505040E695001CCAF72BD0FE2F29D055
:1011B000660F771F881FBB1F261737074807AB0727
:1011C000B0E809F0BB0B802DBF01FF2793585F4F9C
:1011D0003AF09E3F510578F00C946D090C94B809D3
:1011E0005F3FE4F3983ED4F3869577956795B7957E
:1011F000F7959F5FC9F7880F911D9695879597F989
:101200000895E1E0660F771F881FBB1F6217730701
:101210008407BA0720F0621B730B840BBA0BEE1F16
:1012200088F7E09508950E941A096894B1110C940A
:10123000B80908950E949D0988F09F5798F0B92F2A
:101240009927B751B0F0E1F0660F771F881F991FFB
:101250001AF0BA95C9F714C0B13091F00E94B709DD
:10126000B1E008950C94B709672F782F8827B85FED
:1012700039F0B93FCCF3869577956795B395D9F753
:101280003EF490958095709561957F4F8F4F9F4F5D
:101290000895990F0008550FAA0BE0E8FEEF161607
:1012A0001706E807F907C0F012161306E407F5075A
:1012B00098F0621B730B840B950B39F40A2661F0CE
:1012C000232B242B252B21F408950A2609F4A14071
:1012D000A6958FEF811D811D089597F99F6780E87E
:1012E00070E060E008959FEF80EC089500240A9478
:1012F0001616170618060906089500240A941216F1
:101300001306140605060895092E0394000C11F423
:10131000882352F0BB0F40F4BF2B11F460FF04C0D0
:101320006F5F7F4F8F4F9F4F089557FD9058440F29
:10133000551F59F05F3F71F04795880F97FB991F34
:1013400061F09F3F79F087950895121613061406F1
:10135000551FF2CF4695F1DF08C01616170618067E
:10136000991FF1CF86957105610508940895E89459
:10137000BB2766277727CB0197F908950E94490973
:1013800008F48FEF08950E94D6090C9484090E94F6
:10139000760938F00E947D0920F0952311F00C9415
:1013A0006D090C94730911240C94B8090E949509D5
:1013B00070F3959FC1F3950F50E0551F629FF001A8
:1013C000729FBB27F00DB11D639FAA27F00DB11DC1
:1013D000AA1F649F6627B00DA11D661F829F22274A
:1013E000B00DA11D621F739FB00DA11D621F839FD1
:1013F000A00D611D221F749F3327A00D611D231FA7
:10140000849F600D211D822F762F6A2F11249F57F4
:1014100050409AF0F1F088234AF0EE0FFF1FBB1FF7
:10142000661F771F881F91505040A9F79E3F5105B6
:1014300080F00C946D090C94B8095F3FE4F3983E7A
:10144000D4F3869577956795B795F795E7959F5F60
:10145000C1F7FE2B880F911D9695879597F90895F2
:04146000F894FFCF2E
:1014640000000002000000007700000000000100FE
:10147400000005313233343500D0024400D0024438
:101484000000DC430000DC430000DC430000DC43DC
:1014940000000000A4D082437BD492430000C443E4
:1014A400000000000000C443670172017D0188014F
:0214B4009301A2
:00000001FF
