:100000000C944D000C946C000C946C000C946C00DF
:100010000C946C000C946C000C946C000C946C00B0
:100020000C946C000C946C000C946C000C946C00A0
:100030000C946C000C94E7020C946C000C946C0013
:100040000C946C000C946C000C946C000C946C0080
:100050000C946C000C946C000C946C000C946C0070
:100060000C946C000C946C000C946C000C946C0060
:100070000C946C000C946C000C946C000C946C0050
:100080000C946C000C946C000C946C00EF03F40363
:1000900009041A0446047204A90411241FBECFEFF8
:1000A000D0E4DEBFCDBF11E0A0E0B1E0EAEAF1E1CB
:1000B00000E00BBF02C007900D92AA34B107D9F738
:1000C00021E0AAE4B1E001C01D92AF38B207E1F728
:1000D0000E94B2050C94D3080C940000CF93DF93D8
:1000E00000D01F92CDB7DEB789837B836A83898175
:1000F0008A3031F48A819B81BC018DE00E946E00C0
:1001000080EC90E0FC018081882F90E0807299273C
:10011000892BB1F386EC90E02981FC01208380E0FB
:1001200090E00F900F900F90DF91CF910895CF93B3
:10013000DF9300D01F92CDB7DEB789836A834B83EC
:100140008B81882371F08A81282F30E081E090E054
:1001500002C0880F991F2A95E2F7982F8981892B71
:100160000EC08A81282F30E081E090E002C0880F25
:10017000991F2A95E2F7982F9095898189230F90EE
:100180000F900F90DF91CF910895CF93DF9300D020
:10019000CDB7DEB789836A838A81282F30E081E07A
:1001A00090E002C0880F991F2A95E2F7982F898165
:1001B00089230F900F90DF91CF9108950F931F9394
:1001C000CF93DF93CDB7DEB708E210E040E064E004
:1001D0008FEF0E949700F8018083000086E290E094
:1001E000FC018081809560E00E94C500882311F0A9
:1001F00081E3D3C086E290E0FC018081809561E0DC
:100200000E94C500882311F084E3C7C086E290E015
:10021000FC018081809562E00E94C500882311F076
:1002200087E3BBC086E290E0FC018081809563E0BB
:100230000E94C500882311F08AE2AFC008E210E0F6
:1002400040E065E08FEF0E949700F8018083000096
:1002500086E290E0FC018081809560E00E94C5000C
:10026000882311F082E399C086E290E0FC0180814E
:10027000809561E00E94C500882311F085E38DC060
:1002800086E290E0FC018081809562E00E94C500DA
:10029000882311F088E381C086E290E0FC01808130
:1002A000809563E00E94C500882311F080E375C04B
:1002B00008E210E040E066E08FEF0E949700F8014E
:1002C0008083000086E290E0FC018081809560E000
:1002D0000E94C500882311F083E35FC086E290E0AE
:1002E000FC018081809561E00E94C500882311F0A7
:1002F00086E353C086E290E0FC018081809562E055
:100300000E94C500882311F089E347C086E290E08F
:10031000FC018081809563E00E94C500882311F074
:1003200083E23BC008E210E040E067E08FEF0E940C
:100330009700F8018083000086E290E0FC01808154
:10034000809560E00E94C500882311F081E425C0FB
:1003500086E290E0FC018081809561E00E94C5000A
:10036000882311F082E419C086E290E0FC018081CC
:10037000809562E00E94C500882311F083E40DC0DF
:1003800086E290E0FC018081809563E00E94C500D8
:10039000882311F084E401C080E0DF91CF911F91A8
:1003A0000F9108950F931F93CF93DF9300D000D048
:1003B000CDB7DEB769837A838B839C8380915101AB
:1003C00090915201A0915301B09154019C01AD0153
:1003D00069817A818B819C810E943F07882309F47F
:1003E00077C020E030E0A90169817A818B819C810E
:1003F0000E943F07882351F481E990E021E930E031
:10040000F90120812870FC01208309C081E990E076
:1004100021E930E0F90120812360FC01208328E5F7
:1004200039E344E75FE369817A818B819C810E9493
:100430003F07882344F488E990E02FEF3FEFFC0169
:100440003183208334C020E034E244EF56E46981F4
:100450007A818B819C810E946108181634F488E9A6
:1004600090E0FC011182108222C008E910E020E037
:1004700030E040E053E469817A818B819C810E9465
:100480006608DC01CB019C01AD0160E074E284EF01
:100490009AE40E944407DC01CB01BC01CD010E941B
:1004A000B607DC01CB010197F8019183808384E9D1
:1004B00090E0FC011182108289819A81AB81BC811C
:1004C0008093510190935201A0935301B093540132
:1004D00000000F900F900F900F90DF91CF911F9120
:1004E0000F910895CF93DF93CDB7DEB780E990E009
:1004F00020E4FC01208381E990E02BE0FC012083D3
:1005000060E070E0CB010E94D2010000DF91CF914A
:100510000895CF93DF93CDB7DEB780E990E0FC017B
:10052000108281E990E0FC0110820000DF91CF9100
:100530000895CF93DF93CDB7DEB781E890E02BE04D
:10054000FC01208388E890E02DE730E0FC01318356
:1005500020838FE690E022E0FC01208384E890E095
:10056000FC011182108280910E0190910F01A091E7
:100570001001B091110180934B0190934C01A09315
:100580004D01B0934E018FE590E02FE530E0F90189
:1005900020812068FC0120830000DF91CF91089525
:1005A000CF93DF93CDB7DEB781E890E0FC011082F6
:1005B0000000DF91CF910895CF93DF93CDB7DEB7E1
:1005C00081E080934A010000DF91CF9108951F924E
:1005D0000F9200905F000F92112400905B000F9229
:1005E0002F933F934F935F936F937F938F939F933B
:1005F000AF93BF93EF93FF93CF93DF93CDB7DEB766
:1006000080914B0190914C01A0914D01B0914E0110
:100610000197A109B10980934B0190934C01A093DC
:100620004D01B0934E0180914B0190914C01A091EE
:100630004D01B0914E01892B8A2B8B2B91F40E9496
:10064000DC0280910E0190910F01A0911001B091F8
:10065000110180934B0190934C01A0934D01B093F5
:100660004E010000DF91CF91FF91EF91BF91AF91CB
:100670009F918F917F916F915F914F913F912F91BA
:100680000F9000925B000F9000925F000F901F9000
:100690001895CF93DF9300D000D0CDB7DEB7698334
:1006A0007A838B839C8389819A81AB81BC8180937F
:1006B0000E0190930F01A0931001B093110180914E
:1006C0000E0190910F01A0911001B0911101809342
:1006D0004B0190934C01A0934D01B0934E0100004B
:1006E0000F900F900F900F90DF91CF910895CF93BF
:1006F000DF9300D01F92CDB7DEB79B838A8383E25E
:1007000090E0FC0180818095807889838A819B813B
:100710008130910551F082309105A1F0892BF9F4D7
:1007200081E090E09B838A831DC08981882329F41E
:1007300081E090E09B838A8315C082E090E09B83F8
:100740008A8310C08981882329F481E090E09B830B
:100750008A8308C082E090E09B838A8303C01B8267
:100760001A8200008A819B818130910531F08230AC
:10077000910531F0892B51F00AC01092500107C049
:1007800010924F0181E08093500101C000008A81E6
:100790009B810F900F900F90DF91CF910895CF9391
:1007A000DF9300D01F92CDB7DEB79B838A830E9470
:1007B000DE0089838A819B81092E000CAA0BBB0B6A
:1007C00040E050E026E030E0841B950B2817390705
:1007D00008F4C4C08A5B9F4FFC010C94360781E08B
:1007E00090E09B838A83BDC08981833269F48091C4
:1007F0005001882349F480914F01882329F482E035
:1008000090E09B838A83ADC081E090E09B838A83E4
:10081000A8C08981833249F480915001882329F44A
:1008200082E090E09B838A839CC083E090E09B837E
:100830008A8397C0809155019981981749F48091D6
:100840005001882329F484E090E09B838A831DC0B3
:100850008981882349F480915001882329F483E019
:1008600090E09B838A8311C08981833249F480910F
:100870005001882329F482E090E09B838A8305C09D
:1008800081E090E09B838A836CC06BC080915501AE
:100890009981981749F480915001882329F484E0C4
:1008A00090E09B838A831DC08981882349F48091CD
:1008B0005001882329F485E090E09B838A8311C04E
:1008C0008981833249F480915001882329F482E0A0
:1008D00090E09B838A8305C081E090E09B838A83BC
:1008E00040C03FC08981882391F4809155018533B0
:1008F00071F080915001882351F483E090E09B8354
:100900008A83809155018F5F8093550121C0898131
:10091000882369F480915501853349F48091500111
:10092000882329F486E090E09B838A8311C0898123
:10093000833249F480915001882329F482E090E0C9
:100940009B838A8305C081E090E09B838A8309C0F2
:1009500008C081E090E09B838A8303C01B821A82D7
:1009600000008A819B818230910591F0833091054E
:100970002CF40097A9F0019739F013C08630910547
:100980007CF0069749F00DC080E38093550109C0C3
:1009900081E38093550105C081E080934F0101C040
:1009A00000008A819B810F900F900F90DF91CF9173
:1009B0000895CF93DF93CDB7DEB7E3970FB6F894E2
:1009C000DEBF0FBECDBF9BAB8AAB80E290E0FC01E7
:1009D000808180958078898380E3E2E1F1E0DE0127
:1009E000129601900D928A95E1F78AA99BA9813010
:1009F000910551F082309105B1F0892B71F581E0BC
:100A000090E09BAB8AAB2CC08981882329F481E0DC
:100A100090E09BAB8AAB24C082E090E09BAB8AABBA
:100A2000109256011DC0809156018C3028F482E04E
:100A300090E09BAB8AAB14C0809156018C3041F49E
:100A40008981803829F483E090E09BAB8AAB08C0B1
:100A500081E090E09BAB8AAB03C01BAA1AAA0000FE
:100A60008AA99BA98130910561F0823091051CF41F
:100A7000892BD1F13AC08230910549F0039709F0F2
:100A800034C060E070E0CB010E94D2012EC08091A2
:100A90005601882F90E0880F991F880F991F9E019B
:100AA0002F5F3F4F820F931F0196FC018081918140
:100AB000A281B3818093570190935801A09359016B
:100AC000B0935A018091570190915801A09159011A
:100AD000B0915A01BC01CD010E94D2018091560112
:100AE0008F5F8093560101C000008AA99BA9E396FD
:100AF0000FB6F894DEBF0FBECDBFDF91CF91089542
:100B0000CF93DF9300D0CDB7DEB79A8389838981F5
:100B10009A81009719F0019731F00AC081E090E0C6
:100B20009A83898308C081E090E09A83898303C017
:100B30001A821982000089819A81009719F0019721
:100B400019F003C0000001C0000085E290E0209190
:100B50004F01FC01208389819A810F900F90DF91D2
:100B6000CF9108950F931F93CF93DF93CDB7DEB747
:100B70002D970FB6F894DEBF0FBECDBF81E290E097
:100B8000FC01108282E290E02FEFFC01208384E2DE
:100B900090E02FE7FC01208385E290E020E8FC0153
:100BA000208387E290E020EFFC01208388E290E040
:100BB0002FE0FC01208388E0E2E4F1E0DE011696FC
:100BC00001900D928A95E1F784E090E09C838B83FD
:100BD0008FEF8D838D8180935B0182E390E0A0E0B5
:100BE000B0E080935C0190935D01A0935E01B093AF
:100BF0005F0180915C0190915D01A0915E01B091D7
:100C00005F018093600190936101A0936201B093B2
:100C1000630187E793E090936501809364018D8180
:100C20008093660182E390E0A0E0B0E080936701EA
:100C300090936801A0936901B0936A018091670164
:100C400090916801A0916901B0916A0180936B0154
:100C500090936C01A0936D01B0936E018FEC93E0C3
:100C60009093700180936F018D818093710182E375
:100C700090E0A0E0B0E08093720190937301A093A4
:100C80007401B09375018091720190917301A091EC
:100C90007401B09175018093760190937701A093D0
:100CA0007801B093790180E895E090937B0180937F
:100CB0007A018D8180937C0188EC90E0A0E0B0E027
:100CC00080937D0190937E01A0937F01B09380017A
:100CD00080917D0190917E01A0917F01B091800172
:100CE0008093810190938201A0938301B09384014A
:100CF00089ED94E0909386018093850162E370E032
:100D000080E090E00E9449030E9499020E947202D2
:100D10001A8219829BC089819A81880F991F9E012E
:100D20002F5F3F4F820F931F0596FC0180819181B9
:100D3000FC01258136814781508589819A81880F00
:100D4000991FBE016F5F7F4F860F971F0596FC01AD
:100D500080819181FC0181819281A381B4812817D6
:100D600039074A075B0709F045C089819A81880FD6
:100D7000991F9E012F5F3F4F820F931F0596FC0125
:100D80000081118189819A81880F991F9E012F5FAF
:100D90003F4F820F931F0596FC0180819181FC01DA
:100DA0002185328589819A81880F991FAE014F5F15
:100DB0005F4F840F951F0596FC0180819181FC0196
:100DC0008081082E000C990BF9010995F8018083A8
:100DD00089819A81880F991F9E012F5F3F4F820F53
:100DE000931F0596FC0180819181FC01158216827A
:100DF0001782108689819A81880F991F9E012F5F23
:100E00003F4F820F931F0596FC012081318189811C
:100E10009A81880F991FAE014F5F5F4F840F951F16
:100E20000596FC0180819181FC0185819681A781D5
:100E3000B085C296A11DB11DF90185839683A78354
:100E4000B08789819A8101969A83898329813A8121
:100E50008B819C812817390708F45DCF00008091B1
:100E60004A018823E1F310924A0152CFEE0FFF1F8F
:100E70000024001C0BBE0790F691E02D09940E94FF
:100E8000EC0708F481E008950E9458070C942708A5
:100E90000E94200858F00E94190840F029F45F3F92
:100EA00029F00C94100851110C945B080C9416084E
:100EB0000E94380868F39923B1F3552391F3951BE9
:100EC000550BBB27AA2762177307840738F09F5F6B
:100ED0005F4F220F331F441FAA1FA9F335D00E2ED8
:100EE0003AF0E0E832D091505040E695001CCAF745
:100EF0002BD0FE2F29D0660F771F881FBB1F261708
:100F000037074807AB07B0E809F0BB0B802DBF01DE
:100F1000FF2793585F4F3AF09E3F510578F00C94AD
:100F200010080C945B085F3FE4F3983ED4F3869579
:100F300077956795B795F7959F5FC9F7880F911DCE
:100F40009695879597F90895E1E0660F771F881FBA
:100F5000BB1F621773078407BA0720F0621B730B6D
:100F6000840BBA0BEE1F88F7E09508950E94BD0729
:100F70006894B1110C945B0808950E94400888F0B1
:100F80009F5798F0B92F9927B751B0F0E1F0660F4D
:100F9000771F881F991F1AF0BA95C9F714C0B1308E
:100FA00091F00E945A08B1E008950C945A08672FF6
:100FB000782F8827B85F39F0B93FCCF386957795BD
:100FC0006795B395D9F73EF49095809570956195A6
:100FD0007F4F8F4F9F4F0895990F0008550FAA0B11
:100FE000E0E8FEEF16161706E807F907C0F012163C
:100FF0001306E407F50798F0621B730B840B950B3F
:1010000039F40A2661F0232B242B252B21F4089593
:101010000A2609F4A140A6958FEF811D811D089530
:1010200097F99F6780E870E060E008959FEF80EC9B
:10103000089500240A94161617061806090608953E
:1010400000240A9412161306140605060895092EA4
:101050000394000C11F4882352F0BB0F40F4BF2B13
:1010600011F460FF04C06F5F7F4F8F4F9F4F089553
:1010700057FD9058440F551F59F05F3F71F0479549
:10108000880F97FB991F61F09F3F79F0879508952E
:10109000121613061406551FF2CF4695F1DF08C04D
:1010A000161617061806991FF1CF8695710561056A
:1010B00008940895E894BB2766277727CB0197F912
:1010C00008950E94EC0708F48FEF08950E947908B4
:1010D0000C9427080E94190838F00E94200820F07C
:1010E000952311F00C9410080C94160811240C94FC
:1010F0005B080E94380870F3959FC1F3950F50E08C
:10110000551F629FF001729FBB27F00DB11D639FB9
:10111000AA27F00DB11DAA1F649F6627B00DA11D5F
:10112000661F829F2227B00DA11D621F739FB00D05
:10113000A11D621F839FA00D611D221F749F332775
:10114000A00D611D231F849F600D211D822F762F0E
:101150006A2F11249F5750409AF0F1F088234AF0EB
:10116000EE0FFF1FBB1F661F771F881F9150504057
:10117000A9F79E3F510580F00C9410080C945B0871
:101180005F3FE4F3983ED4F3869577956795B795DE
:10119000F795E7959F5FC1F7FE2B880F911D9695F8
:0A11A000879597F90895F894FFCFA2
:1011AA0000000002000000006E00000000000100C4
:1011BA00000000D0024400D002440000DC430000DA
:1011CA00DC430000DC430000DC4300000000A4D044
:1011DA0082437BD492430000C44300000000000015
:0A11EA00C4435B01660171017C0142
:00000001FF
