:100000000C944D000C946C000C946C000C946C00DF
:100010000C946C000C946C000C946C000C946C00B0
:100020000C946C000C946C000C946C000C946C00A0
:100030000C946C000C94E7020C946C000C946C0013
:100040000C946C000C946C000C946C000C946C0080
:100050000C946C000C946C000C946C000C946C0070
:100060000C946C000C946C000C946C000C946C0060
:100070000C946C000C946C000C946C000C946C0050
:100080000C946C000C946C000C946C00F803FD0351
:10009000120423044E047904C00411241FBECFEFC0
:1000A000D0E4DEBFCDBF11E0A0E0B1E0ECEDF1E1C6
:1000B00000E00BBF02C007900D92A035B107D9F741
:1000C00021E0A0E5B1E001C01D92A639B207E1F739
:1000D0000E94CB050C94EC080C940000CF93DF93A6
:1000E00000D01F92CDB7DEB789837B836A83898175
:1000F0008A3031F48A819B81BC018DE00E946E00C0
:1001000080EC90E0FC018081882F90E0807299273C
:10011000892BB1F386EC90E02981FC01208380E0FB
:1001200090E00F900F900F90DF91CF910895CF93B3
:10013000DF9300D01F92CDB7DEB789836A834B83EC
:100140008B81882371F08A81282F30E081E090E054
:1001500002C0880F991F2A95E2F7982F8981892B71
:100160000EC08A81282F30E081E090E002C0880F25
:10017000991F2A95E2F7982F9095898189230F90EE
:100180000F900F90DF91CF910895CF93DF9300D020
:10019000CDB7DEB789836A838A81282F30E081E07A
:1001A00090E002C0880F991F2A95E2F7982F898165
:1001B00089230F900F90DF91CF9108950F931F9394
:1001C000CF93DF93CDB7DEB708E210E040E064E004
:1001D0008FEF0E949700F8018083000086E290E094
:1001E000FC018081809560E00E94C500882311F0A9
:1001F00081E3D3C086E290E0FC018081809561E0DC
:100200000E94C500882311F084E3C7C086E290E015
:10021000FC018081809562E00E94C500882311F076
:1002200087E3BBC086E290E0FC018081809563E0BB
:100230000E94C500882311F08AE2AFC008E210E0F6
:1002400040E065E08FEF0E949700F8018083000096
:1002500086E290E0FC018081809560E00E94C5000C
:10026000882311F082E399C086E290E0FC0180814E
:10027000809561E00E94C500882311F085E38DC060
:1002800086E290E0FC018081809562E00E94C500DA
:10029000882311F088E381C086E290E0FC01808130
:1002A000809563E00E94C500882311F080E375C04B
:1002B00008E210E040E066E08FEF0E949700F8014E
:1002C0008083000086E290E0FC018081809560E000
:1002D0000E94C500882311F083E35FC086E290E0AE
:1002E000FC018081809561E00E94C500882311F0A7
:1002F00086E353C086E290E0FC018081809562E055
:100300000E94C500882311F089E347C086E290E08F
:10031000FC018081809563E00E94C500882311F074
:1003200083E23BC008E210E040E067E08FEF0E940C
:100330009700F8018083000086E290E0FC01808154
:10034000809560E00E94C500882311F081E425C0FB
:1003500086E290E0FC018081809561E00E94C5000A
:10036000882311F082E419C086E290E0FC018081CC
:10037000809562E00E94C500882311F083E40DC0DF
:1003800086E290E0FC018081809563E00E94C500D8
:10039000882311F084E401C080E0DF91CF911F91A8
:1003A0000F9108950F931F93CF93DF9300D000D048
:1003B000CDB7DEB769837A838B839C8380915801A4
:1003C00090915901A0915A01B0915B019C01AD013E
:1003D00069817A818B819C810E945807882309F466
:1003E00077C020E030E0A90169817A818B819C810E
:1003F0000E945807882351F481E990E021E930E018
:10040000F90120812870FC01208309C081E990E076
:1004100021E930E0F90120812360FC01208328E5F7
:1004200039E344E75FE369817A818B819C810E9493
:100430005807882344F488E990E02FEF3FEFFC0150
:100440003183208334C020E034E244EF56E46981F4
:100450007A818B819C810E947A08181634F488E98D
:1004600090E0FC011182108222C008E910E020E037
:1004700030E040E053E469817A818B819C810E9465
:100480007F08DC01CB019C01AD0160E074E284EFE8
:100490009AE40E945D07DC01CB01BC01CD010E9402
:1004A000CF07DC01CB010197F8019183808384E9B8
:1004B00090E0FC011182108289819A81AB81BC811C
:1004C0008093580190935901A0935A01B0935B0116
:1004D00000000F900F900F900F90DF91CF911F9120
:1004E0000F910895CF93DF93CDB7DEB780E990E009
:1004F00020E4FC01208381E990E02BE0FC012083D3
:1005000060E070E0CB010E94D2010000DF91CF914A
:100510000895CF93DF93CDB7DEB780E990E0FC017B
:10052000108281E990E0FC0110820000DF91CF9100
:100530000895CF93DF93CDB7DEB781E890E02BE04D
:10054000FC01208388E890E02DE730E0FC01318356
:1005500020838FE690E022E0FC01208384E890E095
:10056000FC011182108280910E0190910F01A091E7
:100570001001B09111018093510190935201A09309
:100580005301B09354018FE590E02FE530E0F9017D
:1005900020812068FC0120830000DF91CF91089525
:1005A000CF93DF93CDB7DEB781E890E0FC011082F6
:1005B0000000DF91CF910895CF93DF93CDB7DEB7E1
:1005C00081E0809350010000DF91CF9108951F9248
:1005D0000F9200905F000F92112400905B000F9229
:1005E0002F933F934F935F936F937F938F939F933B
:1005F000AF93BF93EF93FF93CF93DF93CDB7DEB766
:100600008091510190915201A0915301B0915401F8
:100610000197A109B1098093510190935201A093D0
:100620005301B09354018091510190915201A091D6
:100630005301B0915401892B8A2B8B2B91F40E948A
:10064000DC0280910E0190910F01A0911001B091F8
:1006500011018093510190935201A0935301B093E3
:1006600054010000DF91CF91FF91EF91BF91AF91C5
:100670009F918F917F916F915F914F913F912F91BA
:100680000F9000925B000F9000925F000F901F9000
:100690001895CF93DF9300D000D0CDB7DEB7698334
:1006A0007A838B839C8389819A81AB81BC8180937F
:1006B0000E0190930F01A0931001B093110180914E
:1006C0000E0190910F01A0911001B0911101809342
:1006D000510190935201A0935301B0935401000033
:1006E0000F900F900F900F90DF91CF910895CF93BF
:1006F000DF9300D01F92CDB7DEB79B838A8383E25E
:1007000090E0FC0180818095807889838A819B813B
:100710008130910551F082309105A1F0892BF9F4D7
:1007200081E090E09B838A831DC08981882329F41E
:1007300081E090E09B838A8315C082E090E09B83F8
:100740008A8310C08981882329F481E090E09B830B
:100750008A8308C082E090E09B838A8303C01B8267
:100760001A8200008A819B818130910531F08230AC
:10077000910531F0892B51F00AC01092560107C043
:100780001092550181E08093560101C000008A81DA
:100790009B810F900F900F90DF91CF910895CF9391
:1007A000DF9300D000D0CDB7DEB79C838B830E944F
:1007B000DE00898380915C01882F90E08D5E9E4FE2
:1007C000FC0180818A838B819C81092E000CAA0BFD
:1007D000BB0B40E050E026E030E0841B950B28176F
:1007E000390708F4D2C08A5B9F4FFC010C944F0775
:1007F00081E090E09C838B83CEC08981833269F451
:1008000080915601882349F480915501882329F469
:1008100082E090E09C838B83BEC081E090E09C836B
:100820008B83B9C08981833249F480915601882332
:1008300029F482E090E09C838B83ADC083E090E05C
:100840009C838B83A8C099818A81981749F48091F1
:100850005601882329F484E090E09C838B831DC09B
:100860008981882349F480915601882329F483E003
:1008700090E09C838B8311C08981833249F48091FD
:100880005601882329F482E090E09C838B8305C085
:1008900081E090E09C838B837EC07DC099818A81BA
:1008A000981749F480915601882329F484E090E058
:1008B0009C838B831DC08981882349F480915601D4
:1008C000882329F485E090E09C838B8311C0898183
:1008D000833249F480915601882329F482E090E024
:1008E0009C838B8305C081E090E09C838B8353C005
:1008F00052C089818823D1F480915C01282F30E097
:1009000080911201882F90E001972817390774F41D
:1009100080915601882351F483E090E09C838B837F
:1009200080915C018F5F80935C0129C0898188235D
:10093000A9F480915C01282F30E080911201882F6A
:1009400090E001972817390749F4809156018823D0
:1009500029F486E090E09C838B8311C089818332E7
:1009600049F480915601882329F482E090E09C8329
:100970008B8305C081E090E09C838B830CC00BC00F
:1009800081E090E09C838B8306C01C821B8281E007
:100990008093570100008B819C818230910589F002
:1009A000833091052CF4009799F0019739F011C02C
:1009B000863091056CF0069739F00BC010925C01FF
:1009C00008C010925C0105C081E08093550101C010
:1009D00000008B819C810F900F900F900F90DF9102
:1009E000CF910895CF93DF93CDB7DEB7E3970FB6DE
:1009F000F894DEBF0FBECDBF9BAB8AAB80E290E028
:100A0000FC01808180958078898380E3E8E1F1E0D2
:100A1000DE01129601900D928A95E1F78AA99BA9B1
:100A20008130910551F082309105B1F0892B71F53B
:100A300081E090E09BAB8AAB2CC08981882329F4AC
:100A400081E090E09BAB8AAB24C082E090E09BAB5E
:100A50008AAB10925D011DC080915D018C3028F43D
:100A600082E090E09BAB8AAB14C080915D018C303A
:100A700041F48981803829F483E090E09BAB8AAB14
:100A800008C081E090E09BAB8AAB03C01BAA1AAA06
:100A900000008AA99BA98130910561F082309105FF
:100AA0001CF4892BD1F13AC08230910549F00397AB
:100AB00009F034C060E070E0CB010E94D2012EC08A
:100AC00080915D01882F90E0880F991F880F991FF2
:100AD0009E012F5F3F4F820F931F0196FC01808183
:100AE0009181A281B38180935E0190935F01A09375
:100AF0006001B093610180915E0190915F01A091CE
:100B00006001B0916101BC01CD010E94D2018091D0
:100B10005D018F5F80935D0101C000008AA99BA9E0
:100B2000E3960FB6F894DEBF0FBECDBFDF91CF9135
:100B30000895CF93DF9300D0CDB7DEB79A83898332
:100B400089819A81009719F0019731F00AC081E0FC
:100B500090E09A83898308C081E090E09A8389833A
:100B600003C01A821982000089819A81009719F0C6
:100B7000019719F003C0000001C0000085E290E079
:100B800020915501FC01208389819A810F900F905B
:100B9000DF91CF9108950F931F93CF93DF93CDB73C
:100BA000DEB72D970FB6F894DEBF0FBECDBF81E242
:100BB00090E0FC01108282E290E02FEFFC012083A4
:100BC00084E290E02FE7FC01208385E290E020E8BA
:100BD000FC01208387E290E020EFFC01208388E283
:100BE00090E02FE0FC01208388E0E8E4F1E0DE0102
:100BF000169601900D928A95E1F784E090E09C832F
:100C00008B838FEF8D838D818093620182E390E0EF
:100C1000A0E0B0E08093630190936401A09365012C
:100C2000B09366018091630190916401A091650188
:100C3000B09166018093670190936801A093690168
:100C4000B0936A0187E793E090936C0180936B0106
:100C50008D8180936D0182E390E0A0E0B0E080930D
:100C60006E0190936F01A0937001B0937101809118
:100C70006E0190916F01A0917001B091710180930C
:100C8000720190937301A0937401B09375018FEC7E
:100C900093E090937701809376018D818093780122
:100CA00082E390E0A0E0B0E08093790190937A0134
:100CB000A0937B01B0937C018091790190917A019E
:100CC000A0917B01B0917C0180937D0190937E0186
:100CD000A0937F01B093800189E995E09093820110
:100CE000809381018D818093830188EC90E0A0E066
:100CF000B0E08093840190938501A0938601B09326
:100D000087018091840190918501A0918601B09125
:100D100087018093880190938901A0938A01B09301
:100D20008B0182EF94E090938D0180938C0162E3BC
:100D300070E080E090E00E9449030E9499020E94C6
:100D400072021A8219829BC089819A81880F991F29
:100D50009E012F5F3F4F820F931F0596FC018081FC
:100D60009181FC01258136814781508589819A8155
:100D7000880F991FBE016F5F7F4F860F971F0596E3
:100D8000FC0180819181FC0181819281A381B481E8
:100D9000281739074A075B0709F045C089819A81FE
:100DA000880F991F9E012F5F3F4F820F931F05965B
:100DB000FC010081118189819A81880F991F9E0110
:100DC0002F5F3F4F820F931F0596FC018081918119
:100DD000FC012185328589819A81880F991FAE0196
:100DE0004F5F5F4F840F951F0596FC0180819181B5
:100DF000FC018081082E000C990BF9010995F8017E
:100E0000808389819A81880F991F9E012F5F3F4FB0
:100E1000820F931F0596FC0180819181FC01158250
:100E200016821782108689819A81880F991F9E01E8
:100E30002F5F3F4F820F931F0596FC012081318168
:100E400089819A81880F991FAE014F5F5F4F840F90
:100E5000951F0596FC0180819181FC018581968119
:100E6000A781B085C296A11DB11DF9018583968326
:100E7000A783B08789819A8101969A838983298182
:100E80003A818B819C812817390708F45DCF0000D7
:100E9000809150018823E1F31092500152CFEE0F60
:100EA000FF1F0024001C0BBE0790F691E02D099453
:100EB0000E94050808F481E008950E9471070C94CF
:100EC00040080E94390858F00E94320840F029F486
:100ED0005F3F29F00C94290851110C9474080C946C
:100EE0002F080E94510868F39923B1F3552391F319
:100EF000951B550BBB27AA2762177307840738F089
:100F00009F5F5F4F220F331F441FAA1FA9F335D0E5
:100F10000E2E3AF0E0E832D091505040E695001C99
:100F2000CAF72BD0FE2F29D0660F771F881FBB1F53
:100F3000261737074807AB07B0E809F0BB0B802D31
:100F4000BF01FF2793585F4F3AF09E3F510578F05D
:100F50000C9429080C9474085F3FE4F3983ED4F392
:100F6000869577956795B795F7959F5FC9F7880F31
:100F7000911D9695879597F90895E1E0660F771F83
:100F8000881FBB1F621773078407BA0720F0621B14
:100F9000730B840BBA0BEE1F88F7E09508950E943F
:100FA000D6076894B1110C94740808950E945908EA
:100FB00088F09F5798F0B92F9927B751B0F0E1F01A
:100FC000660F771F881F991F1AF0BA95C9F714C0CA
:100FD000B13091F00E947308B1E008950C94730849
:100FE000672F782F8827B85F39F0B93FCCF3869503
:100FF00077956795B395D9F73EF490958095709560
:1010000061957F4F8F4F9F4F0895990F0008550F9F
:10101000AA0BE0E8FEEF16161706E807F907C0F07E
:1010200012161306E407F50798F0621B730B840B86
:10103000950B39F40A2661F0232B242B252B21F460
:1010400008950A2609F4A140A6958FEF811D811D00
:10105000089597F99F6780E870E060E008959FEF3A
:1010600080EC089500240A9416161706180609063F
:10107000089500240A94121613061406050608950E
:10108000092E0394000C11F4882352F0BB0F40F496
:10109000BF2B11F460FF04C06F5F7F4F8F4F9F4FD6
:1010A000089557FD9058440F551F59F05F3F71F058
:1010B0004795880F97FB991F61F09F3F79F08795BF
:1010C0000895121613061406551FF2CF4695F1DF48
:1010D00008C0161617061806991FF1CF86957105D8
:1010E000610508940895E894BB2766277727CB010C
:1010F00097F908950E94050808F48FEF08950E945B
:1011000092080C9440080E94320838F00E94390876
:1011100020F0952311F00C9429080C942F08112429
:101120000C9474080E94510870F3959FC1F3950FB9
:1011300050E0551F629FF001729FBB27F00DB11D5B
:10114000639FAA27F00DB11DAA1F649F6627B00DEB
:10115000A11D661F829F2227B00DA11D621F739FD4
:10116000B00DA11D621F839FA00D611D221F749FE2
:101170003327A00D611D231F849F600D211D822F29
:10118000762F6A2F11249F5750409AF0F1F0882350
:101190004AF0EE0FFF1FBB1F661F771F881F91507D
:1011A0005040A9F79E3F510580F00C9429080C94FB
:1011B00074085F3FE4F3983ED4F38695779567957E
:1011C000B795F795E7959F5FC1F7FE2B880F911DA7
:0C11D0009695879597F90895F894FFCF45
:1011DC0000000002000000006E0000000000010092
:1011EC00000005313233343500D0024400D00244C3
:1011FC000000DC430000DC430000DC430000DC4367
:10120C0000000000A4D082437BD492430000C4436E
:10121C00000000000000C44362016D0178018301ED
:00000001FF
